:020000007C285A
:10000800FF00030E8301A7000A08A8008A018B1CC1
:100018001128A10A0319A20A8B1028088A00270EA2
:080028008300FF0E7F0E0900AA
:0E0030008312031324088A00230882000800AC
:10003E0018208A110A128000840AA30A0319A40A3E
:08004E00F003031D1F28080048
:1000560083120313FD01F8017008031900347406B6
:10006600FA00FA1BFD09FB01F41F3B28F409F40A08
:10007600F01F3F28F009F00A70087404FA00FA1B12
:1000860063287408F802F00D700DF80D7408F8076F
:10009600F00D0630FC00700DF80D74087018F802AB
:1000A600701CF807F00DFC0B4E28701CF8077B1827
:1000B6007128FD1F0034F009F00AF809F80A003427
:1000C600F41F6E28F01B6B287008F800F0015C28FE
:1000D600F001F00A0034F009FB0A4428F80A740813
:1000E6007802031D5C28F801F00AF01F5C28FF3433
:0200F600080000
:1000F80083120313A001A101A201063083169F00F9
:10010800850105088900090887000708880008187C
:100118008F28861190288615861994280611952807
:100128000615861486189A2806109B28061483122A
:1001380086158619A1280611A2280615890109081D
:1001480085008801080887000B168B17831601178E
:100158008312861C44290F30A00080302006F0004E
:100168008030003A7002031CF8288618C3288901D9
:10017800090885000508880008088700F8288030E5
:10018800033AF0008030200670020318CF280514C7
:1001980009148512D2280514851609100A30F400AE
:1001A8002008F0002B207008A9002908A5000A30B3
:1001B800F4002008F0002B207808F0007008A60052
:1001C80029088800700887000B30FB002630FC00E7
:1001D8005D30FD00FD0BEE28FC0BEE28FB0BEE2836
:1001E80000000000A003B128890109088500173024
:1001F800A00080302006F0008030003A7002031C16
:10020800402986180B298801080887004029803072
:10021800033AF0008030200670020318172985156C
:10022800051585101A298515851405110A30F4005D
:100238002008F0002B207008A9002908A5000A3022
:10024800F4002008F0002B207808F0007008A600C1
:1002580029088800700887000B30FB002630FC0056
:100268005D30FD00FD0B3629FC0B3629FB0B3629CA
:1002780000000000A003FD28890109088500AC28BA
:100288008618E22900302206031D4C290130210678
:10029800031D53290130850001308900E129003010
:1002A8002206031D592902302106031D93292130F6
:1002B800850089010330A00080302006F0008030DE
:1002C800003A7002031C8E290A30F4002008F0005E
:1002D8002B207008A9002908A5000A30F40020087E
:1002E800F0002B207808F0007008A6002908880084
:1002F800700887000B30FB002630FC005D30FD00E5
:10030800FD0B8429FC0B8429FB0B842900000000C9
:10031800A00360290330A1000030A200E1290030C9
:100328002206031D992903302106031D9F290C303D
:1003380085008901E12900302206031DA529043022
:100348002106031DE1290A30850089010330A00038
:1003580080302006F0008030003A7002031CDA2951
:100368000A30F4002008F0002B207008A9002908A2
:10037800A5000A30F4002008F0002B207808F000CF
:100388007008A60029088800700887000B30FB0059
:100398002630FC005D30FD00FD0BD029FC0BD02978
:1003A800FB0BD02900000000A003AC298901090833
:1003B80085000130A1000030A2004429AC28E329BF
:02400E004A2F37
:00000001FF
